:0400000080312B28F8
:100008007E1480310B1F09280A2829282E00191E62
:100018000E280F281A280F1E122813281A28200025
:1000280064088A0063080A0080312928991E1D285F
:100038001E2829288F1E2128222829282000620806
:100048008A0061080A00803129287E100900803161
:100058002D28FC01203084000030850025308231B5
:10006800CC228031A03084000030850020308231DD
:10007800CC2280317E1020008031BE282000CC00A8
:10008800450886008701403FC700413FC800470830
:100098008400480885001200253A031D5428552875
:1000A8009A284508860087010130810741310318E5
:1000B800810ABA01BB01BE01BF01FF30BC00FF309D
:1000C800BD00450886008701403FC700413FC80082
:1000D80047088400480885001200253A031D752842
:1000E80076288F284508860087010130810741312D
:1000F8000318810A2530F4000030F5004C08C700C9
:100108004708F60081314421803101302000C500C4
:100118000030C600BD2845088600870101308107E8
:1001280041310318810AC501C601BD28450886006A
:100138008701403FC700413FC8004708840048087E
:1001480085000008C900CA014908F4004A08F500FA
:100158004C08CB004B08F600813144218031200047
:100168004508860087010130810741310318810A5B
:10017800892808008231A022803103102000161C33
:1001880003140318C828CB2820001614CD282000F3
:1001980016100310961C03140318D328D628200021
:1001A8009614D828200096100310161D031403185F
:1001B800DE28E12820001615E32820001611031078
:1001C800961D03140318E928EC2820009615EE283C
:1001D80020009611B030D5008230D60082318E22B0
:1001E800803129302000DA009630D9007F30890B21
:1001F800FB28D90BFB28DA0BFB28C12880312B28D8
:100208002E0099128330F1000130F2008231DE2293
:1002180081312E0019123A30F1000230F200823199
:10022800D8228131083022009F0090309D00243070
:100238009E0040309B0003309C00FE30F1000230ED
:10024800F2008231EA228131F630F1000230F20008
:100258008231E4228131FA30F1000230F200823139
:10026800F02281312000C001C401C3010830F3002D
:100278007308E500FC01C201C1012E0099160800AF
:1002880076080319482949294E297608031D4D295E
:100298004E29532974088231D22281318229760865
:1002A800033E860087011600010403195C295D29B5
:1002B8007A297608033E86008701403FF700413FD0
:1002C800F800760A86008701403FF900413FFA00AE
:1002D8007A08803AFB007808803A7B02031D762969
:1002E80077087902031879297A298229760A8600FB
:1002F80087010130810741310318810A08007C0811
:10030800203E86008701810122001D1D8C298D2930
:1003180098297C08203E8600870181142000600807
:100328008A005F080A00813122009D1C9C299D29B2
:10033800A8297C08203E86008701011520005E0858
:100348008A005D080A0081317C08203E860087010A
:1003580001080319B029B129B82920005C088A00CE
:100368005B080A008131BB2982315C228131080097
:100378002000960197019801F0309100FF3092001B
:10038800FE309300FC303E00CE00FF30C300F0305A
:10039800B800E501C401B901CF01BA01C501D00116
:1003A800FF30BB00FF30C600FF30D100FF30BC007B
:1003B800FF30C700FF30D2000830E8001030A0003E
:1003C80011303D00CB000800F20020006508031939
:1003D800EE29EF29E9292E00191AF329F429F82919
:1003E800720822009A000F2A19127208F1002000E0
:0803F8004408303E8600870135
:10040000710881000130F1007108C407083044020E
:10041000031C0B2A0C2A0D2AC4010130E5022E0010
:10042000191608002000D2004E08D4004D08D30051
:10043000B801B9012C2A5330D0005008C5004F082C
:10044000D1005108C600520880314220823120007C
:100450004508B8074608B93D53088400540885008C
:100460001200031D342A352A1B2A3908CE00380809
:10047000CD0008000830200065020318402A412AF8
:10048000592A4308303E86008701010822009A005D
:100490000130F00070082000C30708304302031C3D
:1004A000522A532A542AC3010130F0007008E5078C
:1004B0005B2A2E001912080022001908F0007C089F
:1004C000283E86008701700881000130F000700826
:1004D000FC0708307C02031C6E2A6F2A702AFC017C
:1004E0000130F00070082000C107080022008E01D2
:1004F0008F0190019101920193018D0121009E01D4
:100500009B019C0194019501960197019A01990123
:100510000F309800843093009D0108005730200070
:10052000D7005708D8005608CE005508CD005830DF
:10053000D7005708CF0000308231122282310800E4
:100540008231C42282318131BC2182318231BB228D
:100550008231823176228231813104218231080058
:1005600048344F344C34413420347034693463346B
:100570000A340D340034603031008D008F01910158
:1005800006309300920108002F0096019701980110
:1005900099019A019B010800640080010131890BD7
:1005A000CD2A0034F30073088131E821823108003C
:1005B00072082000E4007108E300080072082000BF
:1005C000E2007108E100080072082000DE007108F6
:1005D000DD00080072082000E0007108DF0008005C
:1005E00072082000DC007108DB00080022001D12E8
:0E05F0001D16080082315C22823108000800CE
:020000040001F9
:08000000FF3FFF3FFF3FFF3F00
:0A000E00EC3FFF3F9F3FFF3FFF3F25
:020000040000FA
:00002B01D4
